:020000040000fa
:080000000002040000000000f2
:020000040000fa
:04000800520700009b
:020000040000fa
:04000c005207000097
:020000040000fa
:040010005207000093
:020000040000fa
:04001400520700008f
:020000040000fa
:04001800520700008b
:020000040000fa
:04001c005207000087
:020000040000fa
:040020005207000083
:020000040000fa
:04002400520700007f
:020000040000fa
:04002800520700007b
:020000040000fa
:04002c002ace0000d8
:020000040000fa
:040030005207000073
:020000040000fa
:04003400520700006f
:020000040000fa
:04003800520700006b
:020000040000fa
:04003c0096ce00005c
:020000040000fa
:040040005207000063
:020000040000fa
:04004400520700005f
:020000040000fa
:04004800520700005b
:020000040000fa
:04004c005207000057
:020000040000fa
:040050007403000035
:020000040000fa
:04005400520700004f
:020000040000fa
:040058006ef900003d
:020000040000fa
:04005c005207000047
:020000040000fa
:04006000c2ec0000ee
:020000040000fa
:04006400520700003f
:020000040000fa
:04006800520700003b
:020000040000fa
:04006c005207000037
:020000040000fa
:040070005207000033
:020000040000fa
:04007400520700002f
:020000040000fa
:04007800520700002b
:020000040000fa
:04007c005207000027
:020000040000fa
:040080005207000023
:020000040000fa
:04008400520700001f
:020000040000fa
:040088007ced00000b
:020000040000fa
:04008c005207000017
:020000040000fa
:040090005207000013
:020000040000fa
:04009400520700000f
:020000040000fa
:04009800520700000b
:020000040000fa
:04009c005207000007
:020000040000fa
:0400a0005207000003
:020000040000fa
:0400a40052070000ff
:020000040000fa
:0400a80052070000fb
:020000040000fa
:0400ac0052070000f7
:020000040000fa
:0400b00052070000f3
:020000040000fa
:0400b400baf6000098
:020000040000fa
:0400b8000cb8000080
:020000040000fa
:0400bc0002cf00006f
:020000040000fa
:0400c0006ecf0000ff
:020000040000fa
:0400c400dacf00008f
:020000040000fa
:0400c80058d000000c
:020000040000fa
:0400cc0052070000d7
:020000040000fa
:0400d00052070000d3
:020000040000fa
:0400d40052070000cf
:020000040000fa
:0400d80052070000cb
:020000040000fa
:0400dc0052070000c7
:020000040000fa
:0400e000fab800006a
:020000040000fa
:0400e40090e00000a8
:020000040000fa
:0400e800f0e0000044
:020000040000fa
:0400ec0052070000b7
:020000040000fa
:0400f000fad800003a
:020000040000fa
:0400f4008ae100009d
:020000040000fa
:0400f800f4e100002f
:020000040000fa
:0400fc0052070000a7
:020000040000fa
:0401000052070000a2
:020000040000fa
:04010400520700009e
:020000040000fa
:040108005af60000a3
:020000040000fa
:04010c005207000096
:020000040000fa
:040110005207000092
:020000040000fa
:04011400520700008e
:020000040000fa
:04011800520700008a
:020000040000fa
:04011c004cf00000a3
:020000040000fa
:040120005207000082
:020000040000fa
:04012400520700007e
:020000040000fa
:04012800520700007a
:020000040000fa
:04012c005207000076
:020000040000fa
:040130005207000072
:020000040000fa
:04013400520700006e
:020000040000fa
:04013800520700006a
:020000040000fa
:04013c005207000066
:020000040000fa
:040140005207000062
:020000040000fa
:04014400520700005e
:020000040000fa
:04014800520700005a
:020000040000fa
:04014c005207000056
:020000040000fa
:040150005207000052
:020000040000fa
:04015400520700004e
:020000040000fa
:04015800520700004a
:020000040000fa
:04015c005207000046
:020000040000fa
:040160005207000042
:020000040000fa
:04016400520700003e
:020000040000fa
:04016800520700003a
:020000040000fa
:04016c005207000036
:020000040000fa
:04017000f405000092
:020000040000fa
:04017400c6050000bc
:020000040000fa
:04017800520700002a
:020000040000fa
:04017c005207000026
:020000040000fa
:040180005207000022
:020000040000fa
:04018400520700001e
:020000040000fa
:04018800520700001a
:020000040000fa
:04018c005207000016
:020000040000fa
:040190005207000012
:020000040000fa
:04019400520700000e
:020000040000fa
:04019800520700000a
:020000040000fa
:04019c005207000006
:020000040000fa
:0401a0005207000002
:020000040000fa
:0401a40052070000fe
:020000040000fa
:0401a80052070000fa
:020000040000fa
:0401ac0052070000f6
:020000040000fa
:0401b00052070000f2
:020000040000fa
:0401b40052070000ee
:020000040000fa
:0401b80052070000ea
:020000040000fa
:0401bc0052070000e6
:020000040000fa
:0401c00052070000e2
:020000040000fa
:0401c40052070000de
:020000040000fa
:0401c80052070000da
:020000040000fa
:0401cc0052070000d6
:020000040000fa
:0401d00052070000d2
:020000040000fa
:0401d40052070000ce
:020000040000fa
:0401d80052070000ca
:020000040000fa
:0401dc0052070000c6
:020000040000fa
:0401e00052070000c2
:020000040000fa
:0401e40052070000be
:020000040000fa
:0401e80052070000ba
:020000040000fa
:0401ec0052070000b6
:020000040000fa
:0401f00052070000b2
:020000040000fa
:0401f40052070000ae
:020000040000fa
:0401f80052070000aa
:020000040000fa
:0401fc0052070000a6
:020000040000fa
:0402000052070000a1
:020000040000fa
:040204007c03000077
:020000040000fa
:04020800840300006b
:020000040000fa
:04020c005207000095
:020000040000fa
:040210005207000091
:020000040000fa
:04021400520700008d
:020000040000fa
:040218005207000089
:020000040000fa
:04021c005207000085
:020000040000fa
:040220005207000081
:020000040000fa
:04022400520700007d
:020000040000fa
:040228005207000079
:020000040000fa
:04022c005207000075
:020000040000fa
:040230005207000071
:020000040000fa
:04023400520700006d
:020000040000fa
:040238005207000069
:020000040000fa
:04023c005207000065
:020000040000fa
:040240005207000061
:020000040000fa
:04024400520700005d
:020000040000fa
:040248005207000059
:020000040000fa
:04024c005207000055
:020000040000fa
:040250005207000051
:020000040000fa
:04025400520700004d
:020000040000fa
:040258005207000049
:020000040000fa
:04025c005207000045
:020000040000fa
:040260005207000041
:020000040000fa
:04026400520700003d
:020000040000fa
:100400000f5b23000eff27000e0188000000000094
:10041000000020000000e000020032000001200087
:10042000200288000c000700005d2e000100200063
:100430000f000700000020000000e0000200320072
:100440000000020000000000bed402000000000016
:100450000040da000000fe00c07020000000e00054
:1004600002003200002020009001880000000600f9
:10047000a1028800800078000000eb001a0037001d
:10048000e280400054a0b4009101ba00e280400034
:1004900054a0b4009102ba00e280400054a0b4001d
:1004a0000002eb00472bde00f507b200a601880032
:1004b000602ce10008003a000049eb000201e8006e
:1004c000020039003420ec0002f0a0008301e900b2
:1004d000f9ff3e00040037006128e100010032000e
:1004e0000082eb000b00070011c3ba001101ba0033
:1004f0000604e00003003a000200e000e0ff3a00da
:1005000000000600f607b200a6028800820078000c
:10051000f5ff370004d0a300e20f49001c003900aa
:10052000810278003549ba000201e8000200390072
:100530003420ec0002f0a0008301e9000f0032003b
:100540002549ba000201e800020039003420ec001d
:1005500002f0a0008301e900080032000400e0007e
:100560000600320015c9ba000201e8000200390095
:100570003420ec0002f0a0008301e9008180e80053
:1005800054a0b4000300e000e2ff3a0000000600bf
:100590009102ba00055978008301e900f7ff3200a3
:1005a000c82ade00055978008301e900f3ff320014
:1005b0000400e000f1ff320011d9ba00eeff37006d
:1005c00096db040000000000e4d8040000000000f6
:1005d0001eda04000000000006db0400000000003a
:1005e0003ada04000000000050da040000000000c5
:1005f000f6da0400000000009ada040000000000af
:10060000d6da040000000000e2da04000000000076
:1006100036db0400000000005cdb0400000000008a
:100620008adb04000000000050db04000000000032
:100630009cdb040000000000c897040000000000dc
:10064000fe970400000000007e96040000000000f9
:10065000dc96040000000000fe950400000000008d
:1006600040960400000000002c98040000000000e8
:100670009698040000000000ec98040000000000c0
:100680003699040000000000129a040000000000e7
:10069000589a040000000000769904000000000051
:1006a000bc990400000000006e9b040000000000e4
:1006b000d89b040000000000ae9a04000000000077
:1006c000189b040000000000a29504000000000038
:1006d000d295040000000000740f04000000000028
:1006e0009a1e0400000000000000fa000148a90062
:1006f0000080fa00004006000000fa000ee8a900a1
:100700000080fa0000400600801f78000000fa0018
:1007100060d2bf0062f2b7000f08a9000080fa00a3
:100720004f007800004006000600fa0020079800fd
:10073000c016210010007800000f78000000eb00c8
:1007400010079800c01621001000780010079800cc
:100750001e0090001e0050008000780001f0a700ed
:100760008100ea002e009000808f5000f5ff3500d8
:100770000080fa00000006000000fa000148a9000d
:100780004342a90042a2a80045e2a90041a2a90053
:10079000001280000080a1000090a10000a0a10034
:1007a0000012880040c2a90041e2a80093eba80013
:1007b00000000000915c80000000280000806000c4
:1007c0000000e000fbff3a002148a8000080fa008a
:1007d000000006000000fa0010002200805c880083
:1007e00091cba800805c80000040a1000050a100d7
:1007f000805c88009e2bef00a0002000905c8800a9
:1008000093eba90080242000e05c880010262100e2
:10081000a05c8800962bef000ee8a9002ee8a90046
:1008200091eba8000080fa00000006000000fa002a
:1008300020002000005d8800a1cba800005d8000a2
:100840000000a1000010a100005d8800ae2bef00a9
:10085000a0002000105d880080242000605d8800da
:1008600000262100205d88000f08a9002f08a8009d
:1008700071eba8000080fa00000006000000fa00fa
:100880000148a9002148a9004382a9004362a900a8
:100890004342a80042a2a8004322a9004302a900a3
:1008a00042c2a90041e2a8000148a9002148a800cd
:1008b0000080fa00000006000000fa00efff0700c9
:1008c0000080eb00401288000080fa000000060063
:1008d0000200fa00000f78001e0078000040780047
:1008e00061f2b70093eba8000080fa000000060058
:1008f0000200fa00f00f2000f5ff070000042000be
:10090000f3ff07000000eb00f1ff07000000eb0021
:10091000efff07000000eb00edff07000000eb0019
:10092000ebff070050092000e9ff0700f00f20004f
:10093000e7ff070062d2bf000080fb00000f7800d5
:100940001e0078000080fa00000006000200fa0095
:10095000f00f2000deff070010042000dcff07007e
:100960000000eb00daff07000000eb00d8ff0700f3
:100970000000eb00d6ff07000000eb00d4ff0700eb
:10098000900f2000d2ff0700f00f2000d0ff0700db
:1009900062d2bf000080fb00000f78001e007800cc
:1009a0000080fa00000006000200fa00f00f2000ac
:1009b000c7ff070080042000c5ff07000000eb0010
:1009c000c3ff07000000eb00c1ff0700100020007c
:1009d000bfff0700a00a2000bdff0700700820002d
:1009e000bbff0700f00f2000b9ff070062d2bf0075
:1009f0000080fb00000f78001e0078000080fa00e5
:100a0000000006000200fa00f00f2000b0ff07000f
:100a1000d0042000aeff07000000eb00acff070091
:100a20000000eb00aaff07000000eb00a8ff070092
:100a30000000eb00a6ff0700d0002000a4ff070085
:100a4000f00f2000a2ff070062d2bf000080fb0071
:100a5000000f78001e0078000080fa0000000600f9
:100a60000200fa00f00f200099ff07009006200016
:100a700097ff07000000eb0095ff07000000eb0068
:100a800093ff07000000eb0091ff07000000eb0060
:100a90008fff0700500e20008dff0700f00f200091
:100aa0008bff070062d2bf000080fb00000f7800c0
:100ab0001e0078000080fa00000006000200fa0024
:100ac000f00f200082ff07007007200080ff070062
:100ad0000000eb007eff07000000eb007cff07003a
:100ae0000000eb007aff07000000eb0078ff070032
:100af0005006200076ff0700f00f200074ff07006b
:100b000062d2bf000080fb00000f78001e0078005a
:100b10000080fa00000006000200fa00f00f20003a
:100b20006bff0700a007200069ff07000000eb0033
:100b300067ff07000000eb0065ff07000000eb0007
:100b400063ff07000000eb0061ff0700d00f2000eb
:100b50005fff0700f00f20005dff070062d2bf00bb
:100b60000080fb00000f78001e0078000080fa0073
:100b7000000006000600fa00000f78001107980038
:100b8000220798000080fa00000006003600f800f6
:100b9000809fbe00829fbe00849fbe00869fbe00d5
:100ba0000200fa000a68a90073000700000f78002d
:100bb0001e007800e10f4000040032001e007800a3
:100bc000004078000080fb00a01288000080fa003e
:100bd0004f03be004f02be004f01be004f00be00db
:100be0003600f900004006003600f800809fbe0085
:100bf000829fbe00849fbe00869fbe000200fa0056
:100c00000a48a90005003700b0128000004f7800a4
:100c10001e4078004877020000000000901280001b
:100c2000610060000000e000f7ff3a005222a900d6
:100c30000080fa004f03be004f02be004f01be000d
:100c40004f00be003600f900004006000000fa0028
:100c500040012000c012880051e2a90051a2a90061
:100c60005182a9005162a900801280000080a10079
:100c70000090a1008012880050e2a90050c2a90093
:100c800050a2a9005082a900801280000010a1008b
:100c90000020a100801288005002a90053e2a900a0
:100ca00053c2a90053a2a8005362a9009012800069
:100cb0000060a1000070a1009012880052a2a9005b
:100cc0005222a9000a68a9002a68a8000a48a900b7
:100cd0002a48a80051e2a8005342a8000080fa0068
:100ce000000006000000fa00d8ff07000080fa00ac
:100cf000000006000200fa00000f7800000000006b
:100d000090128000610060000000e000fcff3a00eb
:100d100000000000911280000010200000806000a0
:100d20000000e000fbff32009e1f780080832b0054
:100d3000801f780060932200a81e020000000000bf
:100d4000e48757006093220088140200000000002e
:100d50000000e900f0588800020007000080fa0057
:100d6000000006000000fa0011eba80013eba80039
:100d70000080fa00000006000200fa00a193800043
:100d8000b0938000808f50000d003d00a193800043
:100d9000f00f2000808f500009003c00a0938000dd
:100da00051a322008080400091407800014f7800dc
:100db0000000e800a09388001e80fb0003003700bd
:100dc00010c0b3008af2b7000080eb000080fa0088
:100dd000000006000800fa0020079800310798007c
:100de0008ad2bf00e14f500002003a007432ef0097
:100df0007632ef00b1938000010f780000102000e0
:100e00001e005000100798009e0090003e009000c9
:100e1000808f5000020031000080eb00140037008a
:100e20001e009000e10f50000b0034009e0078007f
:100e300050a32200008040003e019000ae009000d0
:100e400028140200000000009e0078003e00900080
:100e500000804000b09388008ad2bf00e14f50006c
:100e600002003a008a72ef000a000700100020001a
:100e70000080fa00000006000200fa00004f78002f
:100e8000110020000e007800d2ff07000080fa0059
:100e9000000006000000fa000a68a8000080fa00be
:100ea000000006000040da000000fe002088a900d3
:100eb00001eba9000088a9000000060021c8a900d4
:100ec00011eba90001c8a900000006000088a900d4
:100ed000e700600082ff2f00700060001342800076
:100ee0000301610002817000f1fe2f0012428800b0
:100ef0000241800082806000810070000141880012
:100f00000000060001c8a900e7006000f28f2f0072
:100f1000c808dd00334280000301610070006000fa
:100f2000028170004400de003242880061006000ef
:100f3000f1ff2b004e00dd00024180008280600046
:100f400081007000014188000000060011588800ef
:100f50002258880033588800445888005558880023
:100f600066588800775888000058880001eba80070
:100f70000000060091588800a2588800b3588800e5
:100f8000c4588800d5588800e6588800f75888006b
:100f90008058880011eba800000006000602ab0094
:100fa000feff3a000642ab00fcff3a000662ab00cf
:100fb000faff3a000622ab00f8ff3a000682ab00c7
:100fc000f6ff3a0009c2ab00f4ff3a000000060049
:100fd0000662a8000662ab00feff3a0008c2a90044
:100fe00000108000000006008040780000c0eb0088
:100ff0008180fb001110880008e2ab0007003a0076
:1010000009c2ab00feff3a00e4ff07000040eb001e
:101010000802e20001003d00e0cfb300000006003e
:101020002110880030108800000006000622a80069
:10103000000006000602a800000006000642a80004
:1010400000000600001020005202b6000000e90077
:101050004f00de000000060051e2a9002a48a90066
:101060002a68a9000a48a9000a68a9000000060029
:101070000a48a900e70060000a68a900c808dd0066
:1010800000017800f38f2f000207b2004443800074
:10109000848161004811dd0083817000e8006000f8
:1010a00043438800c308de00f3ff2800e1806000ae
:1010b0004443800084816100c208dd008301710027
:1010c0000008b20043438800b2ff2f004700de0053
:1010d00053418000030161006100600002817000e3
:1010e0004300dd005241880071ff2f005441800011
:1010f000848060008100700051418800000006007b
:10110000901280006140600000000600c21288005a
:101110008012880091128800000006008112800071
:10112000e6806000e68f50000c003a0003003700b4
:101130005322ab00feff3a00a1128800b0007800f5
:101140000100e000faff3a00000006005322ab0065
:10115000feff3a008100fb00a1128800b040780039
:101160000104e000f9ff3a00000006008012800050
:1011700066006000e60f500002003a00b0128000e6
:1011800000000600b0128000f00fb2000000060060
:1011900003f0a200889fbe008a9fbe008c1f7800cb
:1011a000b8010700bf0133006450e1004f00320076
:1011b0006420e1005200320003826c0007003b0013
:1011c0000905d0000306d000820f54000c065d0014
:1011d000020039000200320089017800030678001d
:1011e0008582550004003d000003fd008103fd00e1
:1011f0008502ea008b854200840f720002003b00ea
:1012000060001000e08018006011b8000005eb00dd
:101210007a28e1000a00390006007800c75ddd0089
:10122000f707b200878075002d00370082817100ba
:101230000a017800610560008180d1000080d30040
:101240008502e900f9ff3b0006044000878448005e
:1012500002003b0060041400e0841c000988a30025
:10126000070032008a81710082817100610164008f
:101270008904d1000884d3008b05e80017003700eb
:101280000978a30013003a000b00e00013003400bb
:101290008b05e9000804440089844c000a4474006a
:1012a0000978a3000d003a000b00e00007003400ad
:1012b0008b05e9000804440089844c0001003a00d1
:1012c0000b0020000978a300f7ff32000001eb00bb
:1012d00002003700828171000a0178002e010700a8
:1012e0000cf0a70001f0a000770137006420e100b6
:1012f00002003a00838f6c00770133000801be00c2
:101300000200be0070013700889fbe008a9fbe00a9
:101310008c1f78005b0107001002200002003b00d8
:10132000709488005f0137008a0062006408e10061
:1013300002003a0070948800670137006108e100fc
:10134000fcff32000800be000304780072000700b2
:1013500001f0a1000900070008f0a6000400370012
:101360000001be0091042400b0fd200088ff0700aa
:1013700009f0a70001f0a20053013700889fbe00ca
:101380008a9fbe008c9fbe000004be00280107009b
:101390000800be00890678006420e10008003900da
:1013a000040032000160a000120220007294880044
:1013b0005300370091fc2300b0fd20004e003700a1
:1013c0000006eb0009f0a10003f823000200200052
:1013d0000800be00a10007000600340001f8230049
:1013e000000020000801be004b0007000004be0002
:1013f0002c0020000800be0093e82300320a2300de
:1014000096000700120034000801be00d1fd230041
:10141000703d2b005fff07000005be00b3f3230003
:10142000f27a26000800be002e01070003f8230010
:101430000200200056ff07000801be0055ff07000c
:101440000a01be00340007000004be000c06e800dc
:101450000800be0001f0a100020020000398230054
:101460007e0007000800be00160035000801be001f
:101470001c0107000005be0032cd2c0043fb2300f9
:1014800044ff0700809fbe001269280003d52b008f
:101490000a00be0013010700620f210013ef2b00aa
:1014a0003cff07000a01be000e0107004f01be000d
:1014b000190007000801be000a0107000801be006c
:1014c00034ff07000c00e0000b0032000c10a700f6
:1014d00001f0a200b2fd200093fc23006260e10055
:1014e0000400320022a9200063f023000c10a700a2
:1014f00063f8230027ff07000df0a70001f0a2000a
:101500004f06be004f05be004f04be00000006009f
:101510000081eb0027013700889fbe008a9fbe0034
:101520008c1f7800d7000700de00330003866c00b4
:101530006450e1002e0032006420e10033003200ec
:101540006150e1002f0032006120e10031003200e3
:1015500085855500eb07b000090020000804200035
:10156000050037000804440089844c000a0031005b
:101570000603430087834b000001530081815b0019
:10158000f8ff33000203be000800a0000804440076
:1015900089844c00f6ff3900c639dd0083017300f1
:1015a00001003200130020008904d1000884d30018
:1015b0000998a300050032000800a7000300a0005e
:1015c0008904d1000884d3008b05e8008904d10088
:1015d0000884d3000001eb000281d2006e000700f6
:1015e00001f0a1000cf0a70001f0a000b600370048
:1015f0006420e100b80032000801be000200be0015
:10160000f7ff37006120e100b30032006000b8004e
:10161000f3ff37000000200001f82700f0ff37003b
:10162000839f68000100e00002003d0060001000a0
:10163000e08018000300e00002003d00600111009e
:10164000e0811900460107004f00e00002003b0066
:1016500060001000e0801800000006001400200068
:1016600076013700f4ff2f00740137000001be003f
:101670006f0007000470a70003f0a1006509b10026
:10168000160032000d0035006828e1000600350024
:10169000f0ff2f00f1ff27000300e00013003b00e4
:1016a0000100280000000500000040008180480083
:1016b0008502e900fcff3a0008003700f88f42007d
:1016c00002003c008000eb00000005008100d1001a
:1016d0000080d3008502e800fcff3a000300e00030
:1016e00002003b0060001000e080180000000600cf
:1016f0000001be004e0007000470a70003f0a10027
:1017000003f8a30013003a006509b100100032008d
:10171000090035006928e1000200350001002800b9
:101720000000050000004000818048008502e900bb
:10173000fcff3a0000000600f88f4200050035006b
:101740008100d1000080d3008502e800fcff3a0050
:10175000000006008000eb00000005004f89de005d
:1017600082017800500137006011b8005e01370037
:101770000001eb000a010700040032000200200013
:1017800003f8230001f0a70081fe07000000060017
:1017900004002000290137008100200061805500ed
:1017a0000b003d000b00200061fe2f000100e10056
:1017b0001d00340082817100610164008904d10040
:1017c0000884d3000000e800faff3a00710020000e
:1017d0006100640003007000020060000900320034
:1017e00061044400e0844c000988a5000500320033
:1017f0008b05e8006808e10002003a008904d10086
:101800000884d300f20f20000258e10005003d00db
:10181000c75ddd00f907b200898075000800780017
:10182000000006000bf827008b0078000000050080
:10183000c70ade00f107b200f50fb200080032005f
:10184000e1cf4200020032000170a0002400050038
:10185000810f7000010032000408050044000500fb
:10186000810f700002003a00140005008502e900b3
:101870000000400081c04800fcff3b000170a00058
:10188000240005000004be00e9ff07000003be00bd
:101890000405be000200be00e5ff0700844f75008e
:1018a000000006000200be006450e10005003600a2
:1018b0006420e100020036000968a30001003a003c
:1018c0000800be000160a0004f0678004f05be0072
:1018d0004f04be0000000600f0ff2f00f1ff2700bc
:1018e000f9ff3700889fbe008a9fbe008c1f7800da
:1018f000e4ff0700ebff330003866c006450e10057
:10190000240032006420e100270032006150e10031
:10191000220032006120e100210032008b8542006c
:10192000eb07b1000134b800003ab80008044200e7
:1019300089844a00013ab8000030b800888040002d
:1019400009014a0004003300000040008180480083
:10195000020149008b05e900c909dd00830170001f
:101960000100320013002000c814de004814dd001e
:101970004709de001200b200c808de0008847000cb
:1019800085ff070001f0a1000cf0a70001f0a00006
:10199000cdff37006120e100cfff32000801be001b
:1019a0000200be00f7ff37006150e100fcff3a0083
:1019b000c9ff3700889fbe008a9fbe008c9fbe0073
:1019c000820578000004be0099ff07000800be00f1
:1019d0006420e1000700390002003a00f1ff27000f
:1019e000f0ff2f000160a000120220007294880016
:1019f000550037006120e10003003a000b00a7000a
:101a000001f823005000370001f0a100020021007e
:101a10009364240011ff07000800be000400350095
:101a2000b2fd2000930c2400de0007000004be007d
:101a30000005eb000b00a6004f0dde0001f0a10039
:101a40000004be0032982f0023ea2300a5ff070000
:101a50000001eb0003f023000b00a70003f82300b4
:101a6000ccfd070001ff07000000a7000a00a2004c
:101a70003aff07000b00e0000300320002002000e4
:101a800003f02300c2fd070001f0a2000006be0023
:101a9000020020009304240092ff07000801be000a
:101aa000bcfd0700809fbe000c00be0022a22a00e1
:101ab000d3a723008bff07004f01be00b5fd070031
:101ac0000004be0001f0a1000200200003982300e2
:101ad000e2fe07000800be00190035000001be004c
:101ae00080ff07000006be00b2c52900e3622300a4
:101af0007cff070022222b00f3942b00a5fd07009a
:101b00000c01be0077ff0700e273280083c02300aa
:101b1000a0fd07000c01be0072ff070042aa2a00c8
:101b2000a3e22b009bfd07000c01be006dff070028
:101b30000801be006bff07000801be0095fd07000d
:101b40000a00a70001f0a2004f06be004f05be002c
:101b50004f04be00000006000001eb0095ff3700b7
:101b60006022b800060220000000d0008180d20070
:101b70000482d2008582d2000000a000020252003e
:101b800083825a00030031000202420083824a002d
:101b90000000a1000603e900f3ff3a000000060080
:101ba000889fbe008a9fbe000003be0020ff070082
:101bb0008505780082815200020020006220e10049
:101bc00004003a00f307b100040035007718e10083
:101bd000040035000600be00140037006000b800a5
:101be0000f003700f50f2000faff2f008502d1000b
:101bf0000a85d3008301e900fcff3b008184620079
:101c000000046500890f7400f2ff32008582ea004b
:101c10000a85ea008184620000046500defe070098
:101c200007f0a70001f0a0000081eb000200e00037
:101c30004f05be004f04be0000000600889fbe0096
:101c40008a9fbe00841f78000eff07004f007800b7
:101c500011003300f0ff2f00838f6c0006003b0063
:101c6000040565000a00a7000800370009f0a60077
:101c70001000200008003700820f5400838f5c00a2
:101c8000030039001000200001003e000000200089
:101c900009f0a7000000ea004f05be004f04be0097
:101ca0000000e00000000600881f780003047800b0
:101cb0000300e00007003d0060001000e080180015
:101cc00060011900e081190002003b0001f02d00c5
:101cd000030037000400070008f0a70001f0a0008f
:101ce0004f04780000000600889fbe008a9fbe0057
:101cf000008270000402710004827100260032002c
:101d00000004be000200be006011b8006b09200094
:101d1000950220000182cf000a0039000541b10080
:101d20000082cf00070039000541b1000982cf00d1
:101d3000040039000541b1000882cf0001003900dc
:101d40000541b10005425200120032000a003b007a
:101d500082817100610164008100d1000080d300a4
:101d60008984d3000884d3008b05e8000442e8008e
:101d7000f7ff3a00070037000804440089844c004c
:101d800000004800818048008b05e9000442e9001a
:101d9000f9ff3a0080fe07004f05be004f04be0069
:101da000000006000400200000003700889fbe00ed
:101db0008a9fbe008c1f78004f26dd00b1fe070011
:101dc000b8fe33006120e100430032006250e100c0
:101dd00041003e003e0039006420e1003c0032003a
:101de000058255000f003b000402e80038003a006d
:101df000800f5300818f5b00350034000800be0067
:101e000003f0a10001f0a60003f0a0000cf0a70071
:101e1000e0fc0700acfe37000603430087834b005d
:101e20000c4646000005530081855b00020033002c
:101e30000a03be000c00a0000402e900f6ff3b000c
:101e4000850578000602430087824b0004003a00b3
:101e50006000b80009f0a70001f0a0009afe37006a
:101e60000002520081825a000704e000040033009f
:101e70000603430087834b008b05e900faff370018
:101e8000090578000604be000203be006011b80018
:101e900041fe0700e00f5200e08f5a0007003500b6
:101ea00002003c000c08a300040032000601be0042
:101eb00003f0a0000cf0a700b6fc07000a8568003c
:101ec00001f0a1000af0a70001f0a0007efe37009b
:101ed0000800be007cfe3700100220000cf0a600b7
:101ee000709488007cfe3700889fbe000004780054
:101ef0001800900082047800808f540001003600a2
:101f0000800478001800780009017800500207006a
:101f1000188c44001800900089045000190498009f
:101f2000080078004f04be00000006000400fa001c
:101f30000100e00003003a000f80e900e0bf9f00cd
:101f400002003700e0bf9f008100e900f1bf9f0061
:101f5000e480570040f7200004000700efb8970026
:101f60008048eb000080fa00000006006200fa00e2
:101f7000889fbe008a1f78000005780081047800e1
:101f8000020478008300780080f92f000f004000e1
:101f90008a0607009a979f00a9979f000000eb0010
:101fa000b09f9f001885fb008a04fb000a05ea0029
:101fb0004f55de0050022000808f54000d0032008b
:101fc000e10f55000b003a000a0178008800780004
:101fd0002f9097009f91970003000100a0979f000a
:101fe0000000e0008e0032003f9897000000e800fb
:101ff000b09f9f000a04440050022000808f5400cc
:10200000040032000900e000e6ff3a003f98970024
:10201000840037000000eb00909f9f00809f9f008e
:10202000f0979f00e0979f00d0979f00c0979f0078
:1020300007003700815623000100500000004000d7
:10204000c1552300808040005f9897001100700008
:10205000d09f9f00880478000904780038457800f4
:102060008a00fb0080562300070207000000e00002
:10207000f0ff3a00a1c2b300814f55000e003a00b4
:10208000cf8897000180e900c08f9f001000780082
:10209000c09f9f000000e00005003d000000ea0036
:1020a000c09f9f005f9897000020a000d09f9f00d6
:1020b0000904e8000f003700c09f9f000000eb00fc
:1020c00005003700f2ff2700820f500002003200a7
:1020d000ea00b90000804000090478008804780014
:1020e000b900fb000103b100e98f5000f5ff360095
:1020f000c09f9f00e0c2b300984f10000200320062
:102100000080eb0019003700a0c2b300d84f1000c8
:1021100007003a00cf8897000180e900c08f9f0038
:1021200010007800a09f9f000804e800100037000e
:102130000000eb00a09f9f0088007800050037009a
:10214000f3ff2700830f500002003200ea00b900bd
:102150000000410001047800880078003101fb0094
:102160000203b100e90f5100f5ff3600a09f9f0068
:10217000984478008900fb0040552300c201070005
:102180000000e000020032000804e800010037000f
:102190008044eb00c97f9f0080c6b30080cf54000d
:1021a00004003a0098cf14000a003a00664050003c
:1021b00006003700c0c6b30080cf540005003a00c7
:1021c00098cf140003003a0065404000c07f9f0094
:1021d0000804e800e3fb2f008f81410018417800dc
:1021e00081f92f008f804000a0f92f000f004000e0
:1021f000100007000000e00009003a00e1fb2f009a
:102200008f804000a0f92f000f0040002f0507002d
:102210000000e000020035000804e80061ff37001c
:102220000080eb004f0578004f04be000080fa00ec
:1022300000000600889fbe008a1f78000004780016
:10224000824478000305780070c6b30080cf540044
:1022500021003c0000c0e90080cf5400d4003d00c4
:102260007240500080cf54003e0132000d003c000f
:102270006c40500080cf540051013c0000c0e90088
:1022800080cf5400ca003d0050c2b30080cf54003c
:10229000480132007c40400080cf540048013a00a1
:1022a000c300370010c6b30080cf5400c000320016
:1022b00004003c006940500080cf540040013a00c7
:1022c0006b00370030c6b30080cf540018003200d6
:1022d0000040e8000900370000c7b30080cf540079
:1022e0001201320008003c0000c0e90080cf540019
:1022f000db0032005e003c006540500080cf54009f
:102300002f013a001000370050c7b30080cf5400af
:10231000570032006340400080cf54005400320028
:102320006540500080cf540025013a000d01370070
:102330001181e900820878007800900000054500ce
:10234000124d78002401370028609000c2c6b30007
:10235000824f500007003a001101780064005100dc
:10236000800878001000be004f89de0082017800ee
:102370001100370012c7b300824f50000300320033
:10238000a2c6b300824f500006003a001101780047
:1023900068005100800878005001be004000be0077
:1023a000050037001180e9008008780010007800ef
:1023b000cf80de006109b900009cbe000294be001f
:1023c0002862900085c6b300854f52000d00320090
:1023d00025c6b300854f520004003a000000fb0000
:1023e000cf80de006109b9000800370045c7b3009f
:1023f000854f520003003200e6c24200854f520072
:1024000004003a00cf80de006109b900009cbe00e4
:102410000294be003802be002803be00780090007f
:10242000e00f5200e08f5a00e00f5b00e08f5b008e
:1024300003003d0080004500d2c2b3000a0037000f
:10244000881090000118a3000300320080004500ae
:10245000b2c2b300040037000108a3004f003200ed
:102460008000450002c2b30082487800490037006e
:1024700028609000c2c6b300824f500006003a00a8
:102480001101780064005100800878001000be003f
:102490006011b8001100370012c7b300824f50001e
:1024a00003003200a2c6b300824f500006003a007b
:1024b0001101780068005100800878005001be00ca
:1024c0004000be00050037001180e9008008780058
:1024d000100078008000eb006011b800009cbe0086
:1024e0000294be002862900085c6b300854f52005a
:1024f0000d00320025c6b300854f520004003a009b
:102500000080fb008000eb006011b800080037007d
:1025100045c7b300854f520003003200e6c24200b7
:10252000854f520004003a008000eb006011b800b3
:10253000009cbe000294be00081090000038a3006a
:10254000160032003800be002801be00e00f500027
:10255000e08f5800e00f5900e08f59000f00320063
:1025600080c7b30080cf54000300320080c5b300a1
:1025700080cf540009003a007800900080004500a8
:1025800002c3b300824878000000e80080004500e4
:10259000894878000000e8007004980078009000f6
:1025a000000545006a049800894078006a003700f9
:1025b00028619000c0c4b300804f510006003a006b
:1025c0001101780068005100800878005001be00b9
:1025d0004000be0005003700110178006400510082
:1025e000800878001000be00270c0700009cbe0089
:1025f0000294be00b8009000780090000100e00056
:1026000003003d0080004500d2c2b3000a0037003d
:10261000881090000118a3000300320080004500dc
:10262000b2c2b300040037000108a3000500320065
:102630008000450002c2b300824878000000e80034
:102640007004980078009000000545006a04980026
:102650008940780008007800c20007006000370059
:1026600028619000c3c6b3001180e900834f510078
:10267000220032000a003c00e4c15100834f5100a7
:102680002500320083c1e800834f5100130032005f
:10269000e8c15100834f51001e003a000a00370084
:1026a00043c7b300834f51001b003200e6c1410015
:1026b000834f510018003200e9c15100834f51008f
:1026c00014003a00050037008008780010007800f8
:1026d000485c900008487800410037008008780086
:1026e00010007800680a9000cfa2de00612bb900cc
:1026f0000498be000690be003900370080087800bc
:102700001000780068099000cf91de000288be00ba
:10271000330037001180e90080087800100078004d
:10272000680c9000080878002d0037001180e9003f
:102730008008780010007800cf80de006109b900c1
:10274000009cbe000294be00780090000005450089
:102750006a04980081c7b30008007800a40207004b
:102760001f0037001180e90080087800100578000c
:102770006a049800d80c90000900e00004003d00b5
:102780000a00780062000700800478000700370024
:10279000090178008000eb000a00780022000700a1
:1027a0000000e000010032008a045000190c98007b
:1027b0000b00370078009000000545000500370049
:1027c00078009000000545000904e00001003a008f
:1027d00059c2b300094d78000000e8007004980069
:1027e0000000eb004f0578004f04be00000006001b
:1027f000800078001104b100030035009101b100a0
:1028000001003c000050a00000000600800078009d
:102810001106b100030035009101b10001003c0038
:102820000050a1000000060003003700b0cf1000e8
:10283000050032000201e900800178000200e0009a
:10284000faff3a00000005000300780000000600cf
:102850008001780002003700b15978000201e900d8
:102860000200e000fcff3a00000006008001780052
:1028700002003700815978000201e9000200e000ff
:10288000fcff3a0000000600020037000304e000ed
:10289000060032000001780002007800b0417800a4
:1028a00081cf5100f9ff3a00010037000001eb0031
:1028b0000200780000000600020037000204e00079
:1028c0000b0032008101780000027800304178006e
:1028d000b14f5100f9ff320010002000144278007f
:1028e000934f5200030031000080eb00000006000f
:1028f0000000eb000000060000017800b141780004
:10290000035978000304e000fcff3a0000000600d1
:1029100080007800010178003104e000fdff3a00fa
:10292000000051000000060080017800020037001e
:10293000845978000201e9000200e000060032003c
:10294000314278000404e000f9ff3a000200370049
:102950008059eb000201e9000200e000fcff3a00b0
:1029600000000600cf04b000889fbe008a9fbe0012
:102970008c9fbe008e1f780000067800814678008c
:102980003c00be002c01be00d0979f00e1979f0045
:10299000f2979f00839f9f0010c6b30080cf560020
:1029a0001200320010c4b30080cf56000f00320076
:1029b0005c0890000000e00002003d006000200084
:1029c000090037000000e00008003a0070c6b300bc
:1029d00080cf56000300320070c4b30080cf560091
:1029e00002003a0010002000500e98008c00780081
:1029f00080fa2f000f004000d3010700e20f5000c3
:102a00000f003a0030002000100e9800002923002b
:102a100011c6b30081cf560019003200e4c0400057
:102a200081cf560016003200402923008140e80083
:102a300081cf560012003a00002923001000370011
:102a40000000e0001400340030002000100e980058
:102a50008029230011c6b30081cf56000800320040
:102a6000e4c0400081cf560005003200c029230099
:102a70008140e80081cf560001003a008029230000
:102a8000ec009000b0487800b06878001040780002
:102a900090409800a601370011c6b30081cf5600c0
:102aa0000300320011c4b30081cf56000e003a007b
:102ab000ec00900002c3b3008258780061069800d1
:102ac00082c5b30013c6b30083cf560001003a009d
:102ad00082c7b3008258780061069800fc0090001d
:102ae0008180e800710698000000e00005003a00cf
:102af000c0979f008001eb0022fb2f000f014100d7
:102b00008701370010c6b30080cf560006003200a0
:102b100010c4b30080cf56009a003a00112b230056
:102b2000d1b79f0002003700022a2300d2b79f00ce
:102b30005c0890001b0220000000e000010035004e
:102b40008005e8000b05e8006022b8006033b8009b
:102b50005f909700ef9097007f9197008f99970073
:102b6000200a0700000278003c00be002c01be00d5
:102b70000400e00001003d0003f0a200d0979f0098
:102b8000e1979f00f2979f00839f9f00cf9197004e
:102b9000e4815100c3979f000040eb00a0779f00a5
:102ba0003efb2f000f07470031003700c201200015
:102bb00003002000a0fa2f000f004000e2030700ee
:102bc0005f909700ef9097007f9197008f99970003
:102bd00090b79f00a1b79f00b2b79f00c3b79f00f7
:102be000c80a07000004be00670555004240a9005e
:102bf0000c003400ef0a07000002be000203be0012
:102c00001fb09700afb097003fb19700cfb19700ca
:102c1000600b0700d0979f00e1979f00f2979f00fd
:102c2000839f9f0067074700700020000500370062
:102c30006f676400cc48dd004444de000884700007
:102c4000c4ccde00e00f5400e08f5c0005003400cf
:102c50000000e900e10f4000f5ff3a0001003700f5
:102c60000067eb000000e900fdff3b00670747003d
:102c70000a00e000090034006022b8006033b800a8
:102c80005f909700ef9097007f9197008f99970042
:102c9000d90907000000e000c4ff3c0032fb2f0010
:102ca0000f014100020757008e0178008b0f57007b
:102cb000010034008b0178000300e0002b00350098
:102cc0000040eb008e8f51000a003d0082fa2f0079
:102cd0000f01410003004100b0489000f0c0b30074
:102ce000e7cf500003003c000040eb00010037003c
:102cf000810178008300e90034fb2f000f024200bd
:102d00000101420012427800804f5200f8ff320069
:102d1000ef4f500001003a000449e8000100e000d4
:102d200007003d008301e800cf929700e482420053
:102d3000c5979f0022fb2f000f01410002003700c2
:102d400032fb2f000f014100830041000300780097
:102d5000040037004102fb00dfb29700048242000a
:102d6000944878000000e900faff3b005c089000fe
:102d70000000e000ea003d000300e900500e98006a
:102d8000e70037005f949700ef9497007f959700d6
:102d90008f9d97006022b8006033b8000800be0025
:102da0000a01be008f0907000000e00005003d0099
:102db0000bf0a200d8979f00e9979f00fa979f0019
:102dc0008b9f9f0070592700cf9097000088b90013
:102dd000026a28001300200011fa07006404500062
:102de000c8979f0015003b0063041400c0ff2f002c
:102df000000464000800ea00c0979f005f909700fd
:102e0000ef9097007f9197008f9997002a2c2300cd
:102e1000070037000808a300030032003a02be0092
:102e20002a03be00660a07000884d1006805450031
:102e30000800e000f7ff3c001a0037000800e0003f
:102e40001c003200c0ff2f0000046400c8979f00e0
:102e50002a2c23006000b8000200200003ff23009a
:102e6000070037000808a300030032003a02be0042
:102e70002a03be00520a07000884d10068054500f5
:102e80000800e000f7ff3c000002be000203be00a5
:102e90005f909700ef9097007f9197008f99970030
:102ea0005a090700d0979f00e1979f00f2979f0073
:102eb000839f9f005c0f900060c6b30080cf5600d8
:102ec000040032006000200061c4b30081cf5600ce
:102ed00002003a00cf9097006a8040000e07400041
:102ee000f30f5700010034003e01200000c3b3007f
:102ef000a0779f003bfb2f008f85450035003700f2
:102f00005fb09700efb097007fb197008fb997003f
:102f1000fc0907000004be00680757004240a900f2
:102f200010003400230a07000002be000203be00a6
:102f30005fb09700efb097007fb197008fb997000f
:102f4000940a07006022b80046782d007719240003
:102f50001b0a0700d0979f00e1979f00f2979f0000
:102f6000839f9f00e88545008a0020000801be007d
:102f70000c003700a400200005002000a0fd2f0059
:102f80000f0040008f0207005fa89700efa897008e
:102f90007fa997008fb1970004c3b30084654100f7
:102fa0000001be00e00f5100e08f59000600340020
:102fb0000a05e900e10f4500eeff3a000200370084
:102fc00000c3b300806578000a05e900fcff3b0000
:102fd000e88545000e00e0000d0034005f9097008a
:102fe000ef9097007f9197008f999700d0b79f003f
:102ff000e1b79f00f2b79f0083bf9f006022b80037
:103000006033b800fc0807000000e000bcff3c0093
:1030100031fb2f008f804000818555004f91970034
:1030200067004100c0979f00020037008b05e90050
:103030000000e900010178008200780003c3b300ba
:10304000b1cf1100f9ff3200c0979f00dc0990005a
:1030500061c6b30081cf56000300320061c4b300e3
:1030600081cf560002003a000000e8000900370056
:103070001000200051c6b30081cf56000500320079
:103080000d40780050c4b2000080fb000000e90051
:103090004f00de00830140008b8f5100010034009f
:1030a0008b0178000300e0001d00350000c3b30071
:1030b0008b8f510006003d00030241006940400033
:1030c00041c3b30094cf100001003c0069405000a0
:1030d0008300e9008100410001003700840178008d
:1030e0000302e90001037800a142780080cf52007a
:1030f000faff320091c3b300814f500001003a0043
:10310000054be8000400e00005003d000201e90075
:103110008301e8004f9297000402e800c4979f00e3
:103120004f9297008d4078000c00780075070700db
:103130004f0778004f06be004f05be004f04be008b
:10314000cf04b10000000600889fbe000004780094
:10315000e68440001900d0004500de00f27f200028
:10316000820f500010003a00000ceb009904780028
:103170006f816400200020001b003a0021019000b4
:103180000200e00018003a00110190000200e00087
:1031900015003a00100020001100e000120032007b
:1031a00020002000100037000000e00004003a007a
:1031b00001007800180207000000e00008003c0051
:1031c000f20028001901610001fe2300810c71004a
:1031d00021c02f00010c40000080eb0002003700ee
:1031e000000ceb000000eb004f04be0000000600e6
:1031f000fc874700889fbe008a9fbe008c9fbe0050
:103200008e1f78000006780080c5b30080cf500084
:103210000a0032007740400080cf50000a003200a0
:103220006940400080cf50000b0032003054230032
:1032300080bf9f00ae0020000a0037002253230009
:1032400082bf9f00060037003354230083bf9f00d6
:103250008e002000030037003454230084bf9f00f9
:103260000e0120003c02be002c03be000605be007d
:103270000404be0040c6b30080cf500003003200fb
:103280006540400080cf50000b003a00e00f520034
:10329000e08f5a00e00f5b00e08f5b0006003d000e
:1032a0006000b8006011b800040450008584580024
:1032b0000605590087855900e80f570004003200c1
:1032c00040002000f00f57003a003a00010037009c
:1032d00030002000e00f5400e08f5c00e00f5d0044
:1032e000e08f5d0004003a00dc0890008d012000b2
:1032f0000100e000070032008e00e90088806000d5
:103300008fba97008180420091407800f1ef9f00d2
:103310007d012000800078008100e9000500330075
:103320008b05d1000a85d3008984d3000884d3009b
:10333000f9ff3700089ebe000a96be001300370052
:103340008d06e9008e00e900848060000fb99700c7
:10335000810041001141780083fd2f008d814100e3
:1033600082f77900800178008301e90005003300cd
:103370008783d1000683d3008582d3000482d300e3
:10338000f9ff3700049ebe000696be003c02be0058
:103390002c03be00e00f5200e08f5a00e00f5b00ec
:1033a000e08f5b00910034000d00e000e4ff3c0082
:1033b0008e0037002c60900081c6b300814f500012
:1033c0000b00320006003c000004e0000800320060
:1033d000e6c05000814f500052003a000400370010
:1033e000c1c6b300814f50004e003a0023003700a1
:1033f0000800e00004003a005c0890008d01200005
:103400000000e00007003200110009000e84d8001f
:103410000fba97000100420010407800f0ef9f00c3
:103420007d012000110009000e84d8000b00370038
:10343000110009000e04d8008d06e9008e81b90044
:10344000020454008fb89700088440009841780027
:1034500082fd2f000d014100837779000004780080
:103460000800e000020032000d00e000f0ff3c0028
:10347000cfc4de00614db90027003700e00f5400d3
:10348000e08f5c0004003a005c0890008d01200091
:103490000000e000080032006171b9000800be00c1
:1034a0003e0907000fba9700800042009140780063
:1034b000f1ef9f007d0120006171b9000800be009e
:1034c000a7f907000c0037006171b9000800be00c1
:1034d00053f807008d06e90080f1b900020454009a
:1034e0008fba9700088442009841780082fd2f002f
:1034f0000d014100837779000004be00e00f500009
:10350000e08f5800020032000d00e000eeff3c00aa
:103510004fcdde008a057800089ebe000a96be00e8
:1035200032003700e00f5400e08f5c00e00f5d00d8
:10353000e08f5d0004003a005c0890008d012000df
:103540000000e0000a0032006172b900612bb9008e
:103550000800be000a01be00b90907000fba9700b3
:103560008000420091407800f1ef9f007d01200033
:103570006172b900612bb9000800be000a01be00eb
:10358000a80907000e0037006172b900612bb9006d
:103590000800be000a01be00ad0907008d06e90063
:1035a00080f2b900040454008fba970008844200e6
:1035b0009842780084fd2f000d02420085777a0042
:1035c000009ebe000296be003c04be002c05be005c
:1035d000e00f5400e08f5c00e00f5d00e08f5d00c5
:1035e000020034000d00e000e7ff3c00e80f570048
:1035f00010003a000c1090000038a3000d003200bb
:10360000f78f560006003e0080fd2f000d004000a1
:10361000ef40780000c3b30080cf500005003200b7
:1036200002c3b30071fd2f008d8040008d06e900bc
:1036300082f7780078811600120e98006c009000d6
:1036400083fd2f008f8141008d80410080fc0700a9
:103650001c089000dc089000810f500006003d001f
:1036600000805000000e98000c1090000040a10057
:10367000001698000f0037000100e0000d003d002b
:103680008c109000f4806000f08f500009003a0028
:103690007c099000fc009000810051000c09900012
:1036a00082805000008050004240a9000100340098
:1036b000000e98004f0778004f06be004f05be0071
:1036c0004f04be00cf01b100000006000400fa0064
:1036d000889fbe008a9fbe008c1f7800000478007f
:1036e00001067800f80d9000780090008085550064
:1036f00008089000808555001808900080855500c6
:103700002808900080855500380890008085550075
:1037100048089000808555000002220090bf9f005d
:1037200000032300a0bf9f00081090000028a30002
:1037300015003a000b00e000130034000b05780080
:103740008a047800e20f55000100360029002000ad
:10375000c801900009017800ee80570058009000e1
:1037600003000100500498000000e0008c003200cb
:103770006808900009004000600c98000905550099
:103780004240a900eeff3c00780190000200e000fa
:103790000c003400c80190008c00780058009000a4
:1037a00003000100500498008080eb000000e0005e
:1037b0007c003200e8089000780090000080400013
:1037c000600c9800880c90000900e00011003400a3
:1037d00009057800e28f5400010036002a0020001d
:1037e000c80190000a017800ec8057005800900052
:1037f00003000100500498000000e000680032005f
:10380000680890000a004000600c98008a84540008
:10381000edff3700180990000200e0000c003400b2
:10382000c8019000e80090005800900003000100db
:10383000500498008080eb000000e0005900320046
:10384000e80890001808900000804000600c980084
:10385000a80c90000900e000110034000905780070
:10386000e28f5400010036002a002000c8019000b9
:103870000a017800ec805700580090000300010016
:10388000500498000000e0004500320068089000f5
:103890000a004000600c98008a845400edff370055
:1038a000380990000200e0000e003400e8009000ab
:1038b0001808900080804000c801900058009000d7
:1038c00003000100500498008080eb000000e0003d
:1038d00034003200e8089000380890000080400072
:1038e000600c9800c80c90000900e0001100340042
:1038f00009057800e28f5400010036002a002000fc
:10390000c80190000a017800ec8057005800900030
:1039100003000100500498000000e0002000320085
:10392000680890000a004000600c98008a845400e7
:10393000edff3700081090008000eb000028a30086
:10394000180032000b00e000160034008b047800f1
:1039500009057800e28f5400010036002a0020009b
:10396000c80190000a017800ee80570058009000ce
:1039700003000100500498000000e000080032003d
:10398000680890000a004000600c98008a84540087
:103990004240a900eeff3c008000eb000100370030
:1039a0008080eb00010078004f0678004f05be00d4
:1039b0004f04be000080fa000000060001087800f5
:1039c00000000600881f78008a9fbe008c9fbe0002
:1039d000000478000205be000406be000401be001b
:1039e0000a00be000ef70700008cbe000c01be00ee
:1039f000ed0707000005550081855d002a04980049
:103a00003b049800080078004f06be004f05be003a
:103a10004f04780000000600e60040001101780025
:103a200005002800850261006f01610082087800ae
:103a3000020032001200200011003700a0019000a7
:103a4000120020000300e0000d003a0090019000f9
:103a50000300e0000a003a001000e00008003a000d
:103a60003600370064034000960878008001780033
:103a7000530b780090097800040878007001510019
:103a8000110278000400e000f6ff32001300370056
:103a900064024000140378004f33de00838141004c
:103aa0008308730080017800d3037800cf3bde00e9
:103ab0001403780006034300068a7300130278009b
:103ac00004024200100378004f33de0086097200c2
:103ad00090017800038841000201e900910178001b
:103ae000ef8f5100eaff36001000370080017800a8
:103af000530378004f33dd001002d1000408730037
:103b00006402400094037800cf3bdd001303d10032
:103b100086897300110378004f33dd009401d100d2
:103b2000030a73009108d1000201e80091017800b6
:103b3000ff8f5100edff3e00ef8861009188720019
:103b400002007800000006000400fa00889fbe0012
:103b500000047800e6044400190078008000d000da
:103b6000c508de00f47f2000848f50000e003a006c
:103b7000ef006000200020006b003a00a8009000d9
:103b80000100e00068003a00980090000100e000a9
:103b900065003a00100020001800e00062003200ca
:103ba00020002000600037000100e0000a003a0019
:103bb00008007800c2bf9f00d3bf9f0096ff070098
:103bc000800078000000eb004fb99700dfb9970044
:103bd0000100e00054003c004f88de0002814000fc
:103be00083014800e07f2000800f5100e08f5900e2
:103bf0000d0034001900e00004003d006000b80032
:103c00000200200003ff2f00030037006000b8000f
:103c10000200200003ff2700009cbe000294be00ab
:103c20001000200040003700e00f5100e08f5900e5
:103c3000050034004411dd00f00028001900600088
:103c4000800c71003700370019007800040028004c
:103c5000040260006f0060000040a000800c78004b
:103c6000d0fc2f00f1ff2f00800f5100818f5900f1
:103c700006003d00840c78000000eb002004980052
:103c800010049800000ceb00270037006f01410082
:103c90000600370008007800500c7800e40044006b
:103ca0001108780099087800800ceb007000510032
:103cb0007001410001fe2f0082804000ef8f400024
:103cc000f4ff35000000ea0015003200880078009b
:103cd00070011000d1027800822add00980178007e
:103ce0008019de00038c720064044400980278009e
:103cf000822add00910178008019de00838872003d
:103d0000990078000209dd00980078008008de0044
:103d1000010c7100990078000008de00800c78002a
:103d2000990c72000080eb004f04be000080fa0086
:103d300000000600881f780002047800080178005f
:103d4000c3fa0700080040004f0478000000060096
:103d50000000fa00881f780000047800ea8157000c
:103d60003fb9970088007800a0e92100070007000c
:103d70000000e0000200350000044400004ceb00ad
:103d80004f0478000080fa00000006006200fa008c
:103d9000889fbe008a1f78000005780081047800a3
:103da000020478008300780080f92f000f004000a3
:103db00002ff07009a979f00a9979f000000eb0061
:103dc000b09f9f001885fb008a04fb000a05ea00eb
:103dd0004f55de0050022000808f54000d0032004d
:103de000e10f55000b003a000a01780088007800c6
:103df0002f9097009f91970003000100a0979f00cc
:103e00000000e0008e0032003f9897000000e800bc
:103e1000b09f9f000a04440050022000808f54008d
:103e2000040032000900e000e6ff3a003f989700e6
:103e3000840037000000eb00909f9f00809f9f0050
:103e4000f0979f00e0979f00d0979f00c0979f003a
:103e500007003700215823000100500000004000f7
:103e600061572300808040005f9897001100700028
:103e7000d09f9f00880478000904780038457800b6
:103e80008a00fb00205823007ffa07000000e000b2
:103e9000f0ff3a00a1c2b300814f55000e003a0076
:103ea000cf8897000180e900c08f9f001000780044
:103eb000c09f9f000000e00005003d000000ea00f8
:103ec000c09f9f005f9897000020a000d09f9f0098
:103ed0000904e8000f003700c09f9f000000eb00be
:103ee00005003700f2ff2700820f50000200320069
:103ef000ea00b900008040000904780088047800d6
:103f0000b900fb000103b100e98f5000f5ff360056
:103f1000c09f9f00e0c2b300984f10000200320023
:103f20000080eb0019003700a0c2b300d84f10008a
:103f300007003a00cf8897000180e900c08f9f00fa
:103f400010007800a09f9f000804e80010003700d0
:103f50000000eb00a09f9f0088007800050037005c
:103f6000f3ff2700830f500002003200ea00b9007f
:103f70000000410001047800880078003101fb0056
:103f80000203b100e90f5100f5ff3600a09f9f002a
:103f9000984478008900fb00e05623003afa0700b5
:103fa0000000e000020032000804e80001003700d1
:103fb0008044eb00c97f9f0080c6b30080cf5400cf
:103fc00004003a0098cf14000a003a0066405000fe
:103fd00006003700c0c6b30080cf540005003a0089
:103fe00098cf140003003a0065404000c07f9f0056
:103ff0000804e8001801fb00e3fb2f008f8141005b
:1040000081f92f008f804000a0f92f000f004000a1
:10401000100007000000e00009003a00e1fb2f005b
:104020008f804000a0f92f000f004000a7fd07007f
:104030000000e000020035000804e80061ff3700de
:104040000080eb004f0578004f04be000080fa00ae
:1040500000000600889fbe008a1f780000047800d8
:10406000824478000305780070c6b30080cf540006
:1040700021003c0000c0e90080cf5400d4003d0086
:104080007240500080cf54003e0132000d003c00d1
:104090006c40500080cf540051013c0000c0e9004a
:1040a00080cf5400ca003d0050c2b30080cf5400fe
:1040b000480132007c40400080cf540048013a0063
:1040c000c300370010c6b30080cf5400c0003200d8
:1040d00004003c006940500080cf540040013a0089
:1040e0006b00370030c6b30080cf54001800320098
:1040f0000040e8000900370000c7b30080cf54003b
:104100001201320008003c0000c0e90080cf5400da
:10411000db0032005e003c006540500080cf540060
:104120002f013a001000370050c7b30080cf540071
:10413000570032006340400080cf540054003200ea
:104140006540500080cf540025013a000d01370032
:104150001181e90082087800780090000005450090
:10416000124d78002401370028609000c2c6b300c9
:10417000824f500007003a0011017800640051009e
:10418000800878001000be004f89de0082017800b0
:104190001100370012c7b300824f500003003200f5
:1041a000a2c6b300824f500006003a001101780009
:1041b00068005100800878005001be004000be0039
:1041c000050037001180e9008008780010007800b1
:1041d000cf80de006109b900009cbe000294be00e1
:1041e0002862900085c6b300854f52000d00320052
:1041f00025c6b300854f520004003a000000fb00c2
:10420000cf80de006109b9000800370045c7b30060
:10421000854f520003003200e6c24200854f520033
:1042200004003a00cf80de006109b900009cbe00a6
:104230000294be003802be002803be007800900041
:10424000e00f5200e08f5a00e00f5b00e08f5b0050
:1042500003003d0080004500d2c2b3000a003700d1
:10426000881090000118a300030032008000450070
:10427000b2c2b300040037000108a3004f003200af
:104280008000450002c2b300824878004900370030
:1042900028609000c2c6b300824f500006003a006a
:1042a0001101780064005100800878001000be0001
:1042b0006011b8001100370012c7b300824f5000e0
:1042c00003003200a2c6b300824f500006003a003d
:1042d0001101780068005100800878005001be008c
:1042e0004000be00050037001180e900800878001a
:1042f000100078008000eb006011b800009cbe0048
:104300000294be002862900085c6b300854f52001b
:104310000d00320025c6b300854f520004003a005c
:104320000080fb008000eb006011b800080037003f
:1043300045c7b300854f520003003200e6c2420079
:10434000854f520004003a008000eb006011b80075
:10435000009cbe000294be00081090000038a3002c
:10436000160032003800be002801be00e00f5000e9
:10437000e08f5800e00f5900e08f59000f00320025
:1043800080c7b30080cf54000300320080c5b30063
:1043900080cf540009003a0078009000800045006a
:1043a00002c3b300824878000000e80080004500a6
:1043b000894878000000e8007004980078009000b8
:1043c000000545006a049800894078006a003700bb
:1043d00028619000c0c4b300804f510006003a002d
:1043e0001101780068005100800878005001be007b
:1043f0004000be0005003700110178006400510044
:10440000800878001000be009f040700009cbe00da
:104410000294be00b8009000780090000100e00017
:1044200003003d0080004500d2c2b3000a003700ff
:10443000881090000118a30003003200800045009e
:10444000b2c2b300040037000108a3000500320027
:104450008000450002c2b300824878000000e800f6
:104460007004980078009000000545006a049800e8
:104470008900fb0008007800650007006000370035
:1044800028619000c3c6b3001180e900834f51003a
:10449000220032000a003c00e4c15100834f510069
:1044a0002500320083c1e800834f51001300320021
:1044b000e8c15100834f51001e003a000a00370046
:1044c00043c7b300834f51001b003200e6c14100d7
:1044d000834f510018003200e9c15100834f510051
:1044e00014003a00050037008008780010007800ba
:1044f000485c900008487800410037008008780048
:1045000010007800680a9000cfa2de00612bb9008d
:104510000498be000690be0039003700800878007d
:104520001000780068099000cf91de000288be007c
:10453000330037001180e90080087800100078000f
:10454000680c9000080878002d0037001180e90001
:104550008008780010007800cf80de006109b90083
:10456000009cbe000294be0078009000000545004b
:104570006a04980081c7b300080078001cfb07009c
:104580001f0037001180e9008008780010057800ce
:104590006a049800d80c90000900e00004003d0077
:1045a0000a007800daf80700800478000700370076
:1045b000090178008000eb000a0078009af80700f3
:1045c0000000e000010032008a045000190c98003d
:1045d0000b0037007800900000054500050037000b
:1045e00078009000000545000904e00001003a0051
:1045f00059c2b300094d78000000e800700498002b
:104600000000eb004f0578004f04be0000000600dc
:104610002f04b000889fbe008a9fbe008c9fbe0002
:104620008e1f78000007780081f79f003e04be00cf
:104630002e05be005e0890000000e00002003d0074
:1046400060002000500f98008e00780020fb2f00a3
:104650000f004000bcfa0700e20f50000a003a00c9
:1046600030002000100f9800b1c9b3000ff0970080
:1046700081404000003e2300e1cf50000d003e008d
:10468000c03d23000b0037000000e0000f003400a5
:1046900030002000100f9800b1c9b3000ff197004f
:1046a00081404100803e2300e1cf500001003e00e8
:1046b000403e2300ee009000b0487800b0687800db
:1046c0001040780090409800f30037000000e000b0
:1046d00005003a0022fb2f000f014100001978006d
:1046e0008001eb00e70037006022b8006033b800bb
:1046f0000800be000a01be003a0307000000e00007
:1047000001003d000bf0a200705927009f98970010
:104710000088b900026a280013002000c0f30700d7
:10472000640650009c9f9f0013003b006306160028
:10473000c0ff2f00000666008c01ea00939f9f00d7
:10474000cd3e23000800be000a01be00070037006e
:104750000c08a300030032003d02be002d03be0082
:10476000170407000c86d100e88646000c00e00024
:10477000f7ff3c00180037000c00e0001800320082
:10478000c0ff2f00000666009c9f9f00cd3e2300c7
:104790006000b8000200200003ff2300070037007c
:1047a0000c08a300030032003d02be002d03be0032
:1047b000030407000c86d100e88646000c00e000e8
:1047c000f7ff3c000002be000203be000800be006e
:1047d0000a01be000d0307000004be000205be0072
:1047e000de08900060c6b3000ff29700804f5200c1
:1047f000040032006000200062c4b300824f520007
:1048000002003a009f9a97006a80420081004000af
:10481000f1b79f0001037800f30f5300020034004a
:1048200037012000f7b79f0000c3b300c0779f0097
:1048300056fb2f000f0343000e007800a0b79f0027
:10484000060778003d0037000800be000a01be00e0
:10485000ac0307000006be007fb19700680151005d
:10486000f2b79f004240a9000c003400d1030700ba
:104870000002be000203be000800be000a01be0026
:10488000440407006022b80046782d007719240000
:10489000cb0307000004be000205be00e80047008d
:1048a0008e0020000802be000a03be00b4b79f00bd
:1048b000c5b79f00d6b79f00e7b79f000c01be00a9
:1048c000010478000c003700a4002000050020003f
:1048d000c0fd2f000f0040003afc07006fa89700b2
:1048e000ffa897000fb197009fb1970005c3b300d1
:1048f000056441000001be00e00f5100e08f590047
:10490000030034000e07e900e10f4700eeff3a0014
:10491000880078003fb49700cfb497005fb5970048
:10492000efb597000200370000c3b3008060780045
:104930000e07e900fcff3b00688740007fb397004b
:104940000600e000070034006022b8006033b800c1
:104950000800be000a01be00a70207000000e00038
:10496000b9ff3c000e0378002fb7970051fb2f00d2
:104970008f804000010353009f9b97006780430096
:10498000909f9f00020037000603e9000000e90045
:10499000010178008200780003c3b300b1cf110099
:1049a000f9ff3200909f9f00de09900061c6b300be
:1049b0000ff29700814f52000300320061c4b30030
:1049c000814f520002003a000000e8000a00370060
:1049d0001000200051c6b3008ff2970081cf520023
:1049e000050032000540780050c4b2000080fb0092
:1049f0000000e9004f00de0083014000868f510077
:104a000001003400860178000300e0001d0035003d
:104a100000c3b300868f510006003d000302410031
:104a20006940400041c3b30094cf100001003c0036
:104a3000694050008300e900810041000100370017
:104a4000840178000302e90001037800a1427800a4
:104a500080cf5200faff320091c3b300814f500063
:104a600001003a00054be8000400e00005003d00ad
:104a70000201e9008301e8001f9b97000603e8009c
:104a8000969f9f008ff397008700fb001f9a970067
:104a90000e007800060007004f0778004f06be00a2
:104aa0004f05be004f04be002f04b10000000600f9
:104ab000f0874700889fbe008a9fbe008c9fbe0083
:104ac0008e1f780000047800814478000205be0043
:104ad000040678000b00e00002003c001b002000f0
:104ae0006ab3220060c6b30080cf54000e003200cb
:104af00060c4b30080cf54000b00320070c6b30016
:104b000080cf54000300320070c4b30080cf540043
:104b100085003a00e40f46008300350058089000f5
:104b2000800f560080003d000c06e80060c6b30010
:104b300080cf54001000320060c4b30080cf540016
:104b40000d003200081090000038a30004003a0065
:104b500058089000808f550001003d005b0c9800c4
:104b6000580890000c005000500c980002003b00c8
:104b70000000eb00500c980098089000680090002e
:104b80000c00e00028003c000100400002c3b3001c
:104b9000024878008100e800110c98005808900045
:104ba0000000e00003003c00081090000038a30063
:104bb000060032006800900001004000e2c2b3002d
:104bc000024878008100e800110c98005808900015
:104bd0008c00ea00810f500001003d000006ea0051
:104be0008c00ea00210c9800000646005c0c98003e
:104bf0008b0f5600010034000b0678003c0c980027
:104c0000e800900018089000008040000c01780037
:104c10008a0078000ef70700580890000c06500034
:104c20004c0c9800940037008c8f550019003d0003
:104c3000010040000b0178008a00780004f70700ab
:104c40001808900000804500100c98008b05560055
:104c50002b0c9800d80890000100e00003003c00f5
:104c6000881090000138a30007003200e80090008f
:104c700000804000e1c2b30001487800380890008d
:104c80000000e800300c980058089000400c980094
:104c900079003700010040000c0178008a0078009c
:104ca000ebf607001808900000004600100c980072
:104cb0008c855500d80890000100e00003003c00fe
:104cc000881090000138a30006003200e800900030
:104cd00080804000e2c2b300824878000000e80013
:104ce000100c980058089000808f55000100340087
:104cf00080057800e80090001808900000804000cf
:104d00008c0045000b017800d1f6070018089000d0
:104d10000b004000100c9800580890008b055000c4
:104d20002b0c98005400370018089000e800900001
:104d3000808040009a4878000000e800100c98003d
:104d4000d80890000100e00003003c0088109000ab
:104d50000138a30006003200e80090008080400087
:104d6000e2c2b300824878000000e800100c98000e
:104d7000580890000000e000100034008b05e900a6
:104d8000808f55000100340080057800e800900015
:104d900018089000008040008a00e8000b017800ad
:104da000abf60700180890000b004000100c9800ac
:104db000580890008b0550002b0c9800e8009000dc
:104dc0001808900000804000095878000007e800ab
:104dd0000c00e00004003500b1c2b30001487800c7
:104de0008e04780004003700d1c2b3000148780077
:104df0008e0478000c06ea007d8557008006eb00e3
:104e000009003700a20020008c0078007280570053
:104e1000310007007fb097008fb89700016d7800d0
:104e2000000678008d06e8000c00e000f5ff3c006d
:104e30000d00e00009003a008e04780000c3b300c2
:104e4000805c7800050037008d06e900fc80570083
:104e50000d80400001c3b30090dc40000d00e00075
:104e6000f9ff3c00e8009000180890000080400026
:104e700080845400390c9800081090007400600081
:104e8000f00f50000e003a00980890007800900053
:104e900000804000a808900001004000b808900081
:104ea00001004000c808900001004000f808900090
:104eb000810f500002003d0000805000000c98005f
:104ec0004f0778004f06be004f05be004f04be00de
:104ed0000f01b10000000600800278000103780095
:104ee000110009000203d80080017800830a7800cd
:104ef0008299b90082005300910298000500780061
:104f000000000600f0874700889fbe008a9fbe0011
:104f10008c9fbe008e1f78000004780081447800ca
:104f20000205be00040678000b00e00002003c0011
:104f30001b002000ea5a230060c6b30080cf540053
:104f40000e00320060c4b30080cf54000b0032006a
:104f500070c6b30080cf54000300320070c4b300a9
:104f600080cf54009d003a00e40f460083003500d6
:104f700058089000800f560080003d000c06e800a5
:104f800060c6b30080cf54001000320060c4b3008c
:104f900080cf54000d003200081090000038a300ac
:104fa00004003a0058089000808f550001003d0031
:104fb0005b0c9800580890000c005000500c9800b2
:104fc00002003b000000eb00500c98009808900095
:104fd000680090000c00e00028003c000100400048
:104fe00002c3b300024878008100e800110c980069
:104ff000580890000000e00003003c0008109000fa
:105000000038a30006003200680090000100400054
:10501000e2c2b300024878008100e800110c980059
:10502000580890008c00ea00810f500001003d00fc
:105030000006ea008c00ea00210c980000064600f9
:105040005c0c98008b0f5600010034000b067800b2
:105050003c0c9800e8009000180890000080400088
:105060000c0178008a007800f9f5070058089000d4
:105070000c0650004c0c9800c20037008c8f550075
:1050800019003d00010040000b0178008a00780003
:10509000eff507001808900000804500100c9800fc
:1050a0008b0556002b0c9800d80890000100e000fa
:1050b00003003c00881090000138a3000700320074
:1050c000e800900000804000e1c2b3000148780091
:1050d000380890000000e800300c98005808900054
:1050e000400c9800a7003700010040000c01780038
:1050f0008a007800d6f507001808900000004600e6
:10510000100c98008c855500d80890000100e00034
:1051100003003c00881090000138a3000600320014
:10512000e800900080804000e2c2b300824878002e
:105130000000e800100c980058089000808f55007f
:105140000100340080057800e80090001808900005
:10515000008040008c0045000b017800bcf5070082
:10516000180890000b004000100c980058089000a0
:105170008b0550002b0c98008200370070c6b300de
:1051800080cf54000300320070c4b30080cf5400bd
:1051900012003a0058089000808f550004003d002e
:1051a000081090000038a30001003a005b0c980042
:1051b000580890000000e900500c980002003b00e5
:1051c0000000eb00500c980070c6b30080cf540074
:1051d00009003a0059c6b3000c00370010c6b300ee
:1051e00080cf54000600320010c4b30080cf5400ba
:1051f00006003a000400370059c4b300030037002a
:1052000009c7b3000100370009c5b30018089000b2
:10521000e8009000808040009a4878000000e80094
:10522000100c9800d80890000100e00003003c003a
:10523000881090000138a30006003200e8009000ba
:1052400080804000e2c2b300824878000000e8009d
:10525000100c9800580890000000e0001000340086
:105260008b05e900808f550001003400800578002f
:10527000e800900018089000008040008a00e800d4
:105280000b01780072f50700180890000b00400031
:10529000100c9800580890008b0550002b0c9800bb
:1052a000e80090001808900000804000095878003d
:1052b0000005e8000c00e00004003500b1c2b300b6
:1052c000014878008a06780004003700d1c2b30094
:1052d000014878008a0678000c06ea00fd85570030
:1052e0000007eb0009003700a20020008c007800c6
:1052f00072805700f8fe07007fb097008fb89700c4
:10530000816d7800000678000e07e8000c00e000d0
:10531000f5ff3c00e10f570013003c0050c6b300fe
:1053200080cf54000300320050c4b30080cf54003b
:1053300003003a008a06780000c3b300805e78005c
:105340000e00e00008003a0000c3b300805e780061
:10535000050037000e07e900fc8057000e80400072
:1053600001c3b30090de40000e00e000f9ff3c00f6
:10537000e8009000180890000080400080865600e9
:105380003d0c98000810900074006000f00f500071
:105390000e003a00980890007800900000804000cd
:1053a000a808900001004000b808900001004000eb
:1053b000c808900001004000f8089000810f5000dc
:1053c00002003d0000805000000c98004f0778005c
:1053d0004f06be004f05be004f04be000f01b100d6
:1053e000000006008f1fd100f40207008f87e9003c
:1053f0000000e00000000600809feb00ef020700c5
:105400008f87e9000000e000000006002800fa0095
:10541000889fbe008a9fbe008c9fbe0003866b00e3
:10542000800007006400e100440032006408e100ed
:105430004a0032006100e100460032006108e100ec
:1054400049003200ec0647006000b8003d02be0093
:105450003d03be00f48657006011b8003d04be0055
:105460003d05be007d0320000b0037000000a000ba
:105470008d06e900130032000402420085824a00d2
:1054800006034b0087834b000000400081804800ea
:1054900002014900838149000802520089825a00b2
:1054a0000a035b008b835b00f0ff3b0008024200b5
:1054b00089824a000a034b008b834b008d06e9006a
:1054c000edff3a008482720086827200f707b20014
:1054d0008782720001003200150020001e04900037
:1054e0003e0b900006035400e63fb0000368a300a3
:1054f000070032000000a7000500a0008301d100d2
:105500000281d3008180d3000080d3000603e8002d
:105510008301d1000281d3008180d3000080d300b9
:105520000002eb000482d2001200070003f0a10089
:105530000cf0a70003f0a0004e0037006402470003
:105540006408e100480032003400be003401be00af
:10555000f6ff37006108e100430032006011b80037
:105560006000b800f1ff370003ff270002002000b1
:10557000fbff3700180020005700200008045300ec
:105580000d003d000600200097fc2f000740e100c1
:105590001e00340084827200610260008301d10029
:1055a0000281d3008180d3000080d3000804e8008a
:1055b000f8ff3a0047002000610460000504740011
:1055c000040464000d00320061004000e0804800e7
:1055d00060014900e081490003b8a50007003200de
:1055e0000603e8006538e10004003a008301d100b9
:1055f0000281d3008180d3000080d300f87f200097
:105600000830e10003003500080378006000b800ae
:105610006011b8004433dd00f300b2008301730071
:1056200000000600680447000294be000094be001b
:10563000fc0447008694be008494be0009007800f4
:10564000a702070008007800a5020700990078006b
:10565000814f70000b003b000800be008002070075
:105660004f00b10003003700f3ff2700f2ff2f00c7
:105670006110b9004f06be004f05be004f04be00ca
:105680000080fa00000006008103780068f007003f
:105690000001be006000b8000478a30013003a00c7
:1056a0006220e10015003e000d0039008301d100a9
:1056b0000281d3008180d3008301d1000281d30015
:1056c0008180d3008301d1000281d3008180d30087
:1056d0000538b000c42add00f300b20083817200f7
:1056e00007f0a70003f0a00000000600f3ff27006a
:1056f000f2ff2f006110b900fbff370003ff270006
